:020000040800F2
:10000000000002201D220008892100088B21000821
:100010008D2100088F2100089121000800000000B8
:100020000000000000000000000000009321000814
:100030009521000800000000972100089921000880
:100040006D2200086D2200086D2200086D22000854
:100050006D2200086D2200086D2200086D22000844
:100060006D2200086D2200086D2200086D22000834
:100070006D2200086D2200086D2200086D22000824
:100080006D2200086D2200086D220008A1210008E1
:10009000B12100086D2200086D2200086D220008C1
:1000A0006D2200086D2200086D2200086D220008F4
:1000B000C12100086D2200086D2200086D22000891
:1000C0006D2200086D2200086D2200086D220008D4
:1000D0006D2200086D2200086D2200086D220008C4
:1000E0006D2200086D2200086D2200086D220008B4
:1000F0006D2200086D2200086D2200086D220008A4
:100100006D2200086D2200086D2200086D22000893
:100110006D2200086D2200086D2200086D22000883
:100120006D2200086D2200086D2200086D22000873
:100130006D2200086D2200086D2200086D22000863
:100140006D2200086D2200086D2200086D22000853
:100150006D2200086D2200086D2200086D22000843
:100160006D2200086D2200086D2200086D22000833
:100170006D2200086D2200086D22000800000000BA
:080180006D2200086D22000849
:1001880010B5054C237833B9044B13B10448AFF3C9
:1001980000800123237010BD1C0000200000000017
:1001A800C822000808B5034B1BB103490348AFF345
:1001B800008008BD0000000020000020C8220008C0
:1001C80081F0004102E000BF83F0004330B54FEA00
:1001D80041044FEA430594EA050F08BF90EA020F6D
:1001E8001FBF54EA000C55EA020C7FEA645C7FEA00
:1001F800655C00F0E2804FEA5454D4EB5555B8BF23
:100208006D420CDD2C4480EA020281EA030382EA93
:10021800000083EA010180EA020281EA0303362D25
:1002280088BF30BD11F0004F4FEA01314FF4801CF8
:100238004CEA113102D0404261EB410113F0004F0A
:100248004FEA03334CEA133302D0524263EB4303C1
:1002580094EA050F00F0A780A4F10104D5F1200E5F
:100268000DDB02FA0EFC22FA05F2801841F10001BA
:1002780003FA0EF2801843FA05F359410EE0A5F18E
:1002880020050EF1200E012A03FA0EFC28BF4CF0BF
:10029800020C43FA05F3C01851EBE37101F0004575
:1002A80007D54FF0000EDCF1000C7EEB00006EEB82
:1002B8000101B1F5801F1BD3B1F5001F0CD349080C
:1002C8005FEA30004FEA3C0C04F101044FEA445263
:1002D80012F5800F80F09A80BCF1004F08BF5FEAEA
:1002E800500C50F1000041EB045141EA050130BDCA
:1002F8005FEA4C0C404141EB010111F4801FA4F16D
:100308000104E9D191F0000F04BF01460020B1FAC1
:1003180081F308BF2033A3F10B03B3F120020CDAF9
:100328000C3208DD02F1140CC2F10C0201FA0CF0D7
:1003380021FA02F10CE002F11402D8BFC2F1200C3C
:1003480001FA02F120FA0CFCDCBF41EA0C019040F2
:10035800E41AA2BF01EB0451294330BD6FEA04043B
:100368001F3C1CDA0C340EDC04F11404C4F1200226
:1003780020FA04F001FA02F340EA030021FA04F338
:1003880045EA030130BDC4F10C04C4F1200220FA8F
:1003980002F001FA04F340EA0300294630BD21FACD
:1003A80004F0294630BD94F0000F83F4801306BF93
:1003B80081F480110134013D4EE77FEA645C18BF87
:1003C8007FEA655C29D094EA050F08BF90EA020F1E
:1003D80005D054EA000C04BF1946104630BD91EA16
:1003E800030F1EBF0021002030BD5FEA545C05D119
:1003F8004000494128BF41F0004130BD14F5800458
:100408003CBF01F5801130BD01F0004545F0FE41CB
:1004180041F470014FF0000030BD7FEA645C1ABF00
:10042800194610467FEA655C1CBF0B46024650EA37
:10043800013406BF52EA033591EA030F41F4002163
:1004480030BD00BF90F0000F04BF0021704730B5E9
:100458004FF4806404F132044FF000054FF00001BE
:1004680050E700BF90F0000F04BF0021704730B57F
:100478004FF4806404F1320410F0004548BF404254
:100488004FF000013EE700BF42004FEAE2014FEAA9
:1004980031014FEA02701FBF12F07F4393F07F4F84
:1004A80081F06051704732F07F4208BF704793F087
:1004B8007F4F04BF41F40021704730B54FF460749A
:1004C80001F0004521F000411CE700BF50EA01029D
:1004D80008BF704730B54FF000050AE050EA010246
:1004E80008BF704730B511F0004502D5404261EBB6
:1004F80041014FF4806404F132045FEA915C3FF4F7
:10050800D8AE4FF003025FEADC0C18BF03325FEA93
:10051800DC0C18BF033202EBDC02C2F1200300FA44
:1005280003FC20FA02F001FA03FE40EA0E0021FA69
:1005380002F11444BDE600BF4FF0FF3C06E000BFE7
:100548004FF0010C02E000BF4FF0010C4DF804CD54
:100558004FEA410C7FEA6C5C4FEA430C18BF7FEA14
:100568006C5C1BD001B050EA410C0CBF52EA430C42
:1005780091EA030F02BF90EA020F0020704710F1C2
:10058800000F91EA030F58BF994208BF90422CBF51
:10059800D8176FEAE37040F0010070474FEA410C4A
:1005A8007FEA6C5C02D150EA013C07D14FEA430C68
:1005B8007FEA6C5CD6D152EA033CD3D05DF8040BD9
:1005C800704700BF8446104662468C46194663460B
:1005D80000E000BF01B5FFF7B7FF002848BF10F1E2
:1005E800000F01BD4DF808EDFFF7F4FF0CBF012027
:1005F80000205DF808FB00BF4DF808EDFFF7EAFFA3
:1006080034BF012000205DF808FB00BF4DF808ED5D
:10061800FFF7E0FF94BF012000205DF808FB00BF52
:100628004DF808EDFFF7CEFF94BF012000205DF8DC
:1006380008FB00BF4DF808EDFFF7C4FF34BF0120E9
:1006480000205DF808FB00BF53B94AB9002908BF6C
:1006580000281CBF4FF0FF314FF0FF3000F072B997
:10066800ADF1080C6DE904CE00F006F8DDF804E001
:10067800DDE9022304B070472DE9F047089E0446DF
:100688008846002B4BD18A42154667D9B2FA82F2C6
:100698004AB1C2F1200701FA02F320FA07F79540A0
:1006A80047EA030894404FEA154E230CB8FBFEF7BF
:1006B8001FFA85FC0EFB178843EA084307FB0CF179
:1006C800994209D9EB1807F1FF3080F01B81994254
:1006D80040F21881023F2B445B1AA4B2B3FBFEF030
:1006E8000EFB103344EA034400FB0CFCA44509D973
:1006F8002C1900F1FF3380F00781A44540F20481F2
:1007080002382C4440EA0740A4EB0C0400271EB131
:10071800D4400023C6E900433946BDE8F0878B4240
:1007280009D9002E00F0EB800027C6E90001384601
:100738003946BDE8F087B3FA83F7002F47D18B42DB
:1007480002D3824200F2FA80841A61EB030301208B
:100758009846002EE0D0C6E90048DDE702B9FFDE82
:10076800B2FA82F2002A40F08F80491B4FEA154EF8
:100778001FFA85F80127B1FBFEFC230C0EFB1C11A8
:1007880043EA014308FB0CF1994207D9EB180CF135
:10079800FF3002D2994200F2CD808446591AA3B2A2
:1007A800B1FBFEF00EFB101443EA044408FB00F80A
:1007B800A04507D92C1900F1FF3302D2A04500F259
:1007C800B6801846A4EB080440EA0C409FE7C7F13E
:1007D800200CBB4022FA0CFE4EEA030E01FA07F485
:1007E80020FA0CF521FA0CF34FEA1E482543B3FB17
:1007F800F8F92C0C08FB19331FFA8EFA44EA034364
:1008080009FB0AF49C4202FA07F200FA07F10BD935
:100818001EEB030309F1FF3080F087809C4240F211
:100828008480A9F1020973441B1BADB2B3FBF8F035
:1008380008FB103345EA034400FB0AFAA24508D92D
:100848001EEB040400F1FF336BD2A24569D90238CC
:10085800744440EA0940A0FB0289A4EB0A044C4511
:10086800C2464B4654D351D0002E69D0B1EB0A058D
:1008780064EB030404FA0CFCFD40FC404CEA05055B
:10088800C6E90054002747E7C2F1200320FA03F71E
:10089800954001FA02F021FA03F34FEA154E384366
:1008A800010CB3FBFEF71FFA85F80EFB173341EA7C
:1008B800034107FB08F38B4204FA02F407D96918CD
:1008C80007F1FF3C2FD28B422DD9023F2944CB1A86
:1008D80081B2B3FBFEF00EFB103341EA034100FB8B
:1008E80008F38B4207D9691800F1FF3C17D28B42F5
:1008F80015D902382944C91A40EA07473BE7374661
:10090800304609E70746E7E61846FBE64145ABD21D
:10091800B8EB020A69EB0E0201381346A4E76046F9
:10092800E9E7184695E76746D1E781467CE702384C
:100938002C4447E7ACF1020C2B442FE7384608E774
:100948003746E9E6704700BF10B504460E4B1878E5
:100958004FF47A73B3FBF0F30C4A1068B0FBF3F072
:1009680000F0E2FB68B90F2C01D901200AE000224F
:1009780021464FF0FF3000F095FB034B5C600020F0
:1009880000E0012010BD00BF00000020180000207A
:1009980008B50B4B1A6842F400721A601A6842F4E0
:1009A80080621A601A6842F480721A60032000F0AC
:1009B80067FB0020FFF7C8FF01F060FB002008BDBF
:1009C800003C0240034A1168034B1B780B44136038
:1009D800704700BF4C00002000000020014B186841
:1009E800704700BF4C000020002800F0A18038B5F7
:1009F800044690F82030D3B12268136823F002032C
:100A08001360FFF7EBFF054623685A6812F0020FE0
:100A180010D0FFF7E3FF401B0A28F5D9636A43F4B7
:100A280000336362052384F82030012038BD01F0CB
:100A380041FBE1E71A6842F001021A60FFF7CEFFB6
:100A4800054623685A6812F0010F0DD1FFF7C6FF5B
:100A5800401B0A28F5D9636A43F40033636205230F
:100A680084F820300120E1E7227E012A3DD01A686F
:100A780022F080021A60637E012B3BD02268136843
:100A880023F040031360A37E012B39D0226813683A
:100A980023F020031360E37E012B37D0226813680C
:100AA80043F010031360237F012B35D022681368AD
:100AB80023F008031360637F012B33D02268136887
:100AC80023F004031360A368E26813432269134305
:100AD800626913436268013A21681343CB610020BD
:100AE8006062012384F82030A0E71A6842F080028F
:100AF8001A60C0E72268136843F040031360C2E736
:100B08002268136843F020031360C4E7226813685F
:100B180023F010031360C6E72268136843F0080344
:100B28001360C8E72268136843F004031360CAE738
:100B38000120704790F82030013BDBB2012B05D92A
:100B4800436A43F4802343620120704770B4434BE7
:100B5800D3F8002242F00102C3F80022D3F80022A1
:100B680022F47C52C3F80022D3F80022486A42EAF1
:100B78000022C3F800224A6902F01F02012000FA8D
:100B880002F2D3F81C42D0430440C3F81C42CB699C
:100B9800B3B9324BD3F80C420440C3F80C42CE68C8
:100BA8008D884C6945EA0645483443F834508E68C8
:100BB8000C884D6944EA0644483503EBC5035C607C
:100BC800CB69012B1DD08B69002B32D1234CD4F873
:100BD80004320340C4F804320B698BBB1F4BD3F8B3
:100BE80014422040C3F814020B6A012B2FD01B4A71
:100BF800D2F8003223F00103C2F80032002070BCA2
:100C08007047164BD3F80C421443C3F80C420E68D5
:100C18008D884C6945EA0645483443F834508E6857
:100C28008C894D6944EA0644483503EBC5035C608A
:100C3800C9E70A4CD4F804321343C4F80432CBE7AA
:100C48000648D0F814321343C0F81432CCE70349ED
:100C5800D1F81C321A43C1F81C22C8E700640040CE
:100C680038B590F82030DBB2012B05D0436A43F445
:100C780000234362012038BD0446022380F8203057
:100C88000268136823F001031360FFF7A7FE054607
:100C980023685B6813F0010F0DD0FFF79FFE401B20
:100CA8000A28F5D9636A43F400336362052384F89C
:100CB80020300120DFE700206062DCE730B490F8E4
:100CC8002040013CE4B2012C06D9436A43F4802356
:100CD8004362012030BC704700296FD10468E46882
:100CE80014F0030F64D0056801F11B0424012C598A
:100CF80004F004049460002C6BD1056801F11B0416
:100D080024012C59640D1460056801F11B042401A9
:100D18002D59C5F34005D560056825446D6805F073
:100D28000F051561056825446D68C5F307259561AC
:100D380005682C446468240C546104680A0114444E
:100D4800D4F8B8411C7004681444D4F8B841C4F30A
:100D580007245C7004681444D4F8B841C4F3074409
:100D68009C7004681444D4F8B841240EDC700468FC
:100D78001444D4F8BC411C7104681444D4F8BC4130
:100D8800C4F307245C7104681444D4F8BC41C4F368
:100D980007449C7104682244D2F8BC21120EDA710F
:100DA800F9B90268D36843F02003D360002091E7C3
:100DB800436A43F40013436201208BE70468246903
:100DC80014F0030F8FD1436A43F4001343620120E8
:100DD80080E7056801F11B0424012C59E4085460DC
:100DE80092E70268136943F020031361002071E75A
:100DF80090F82030013BDBB2012B05D9436A43F45C
:100E08008023436201207047026853691943516186
:100E180000207047704770477047704770477047A9
:100E28007047704770472DE9F84F054603685C69BD
:100E38005F689E68D3F80C90D3F81080D3F818A098
:100E480014F0010F5AD016F0010F17D001229A6042
:100E580016F0020F08D116F0040F30D116F0080F63
:100E680007D04FF4805B0BE001F058F84FF0000B0F
:100E780006E0FFF7CFFF4FF0000B01E04FF0000B4B
:100E880016F4807F0BD02B684FF480729A6016F4AA
:100E9800007F17D116F4806F18D04BF4005B16F45E
:100EA800803F2DD02B684FF480329A6016F4003FB3
:100EB80016D116F4802F17D04BF4004B20E04FF4D6
:100EC800006BDDE7284601F02AF8E8E716F4006F22
:100ED80002D04BF4804BE2E72846FFF79CFFDEE7A1
:100EE800284601F01DF80BE016F4002F02D04BF451
:100EF800803B05E02846FFF78FFF01E04FF0000B2D
:100F080014F0080F07D019F0100F04D04BF4007B31
:100F18002B681022DA6014F0040F02D019F0080FC1
:100F280060D114F0020F04D02B68DB6813F0030FB4
:100F38005FD114F0400F07D018F0100F04D04BF415
:100F4800806B2B6810221A6114F0200F02D018F061
:100F5800080F52D114F0100F04D02B681B6913F03E
:100F6800030F51D114F4003F02D017F0100F4FD1E6
:100F780014F4803F02D017F0080F50D114F4004F3A
:100F880067D017F0040F61D014F4807F04D01AF0F2
:100F9800010F01D04BF0010B14F4007F04D01AF0BC
:100FA800020F01D04BF0020B14F4806F04D01AF03A
:100FB800040F01D04BF0040B14F4006F46D01AF064
:100FC800700A43D0BAF1300F48D02FD9BAF1500F78
:100FD80047D0BAF1600F47D0BAF1400F31D14BF08A
:100FE800400B2EE02B680822DA602846FFF715FF31
:100FF80097E7284600F096FF9BE72B6808221A61BE
:101008002846FFF70CFFA5E72846FFF707FFA9E7E3
:101018002B6810225A602846FFF702FFA8E72B68C2
:1010280008225A602846FFF7FCFEA7E7BAF1100F1E
:1010380005D0BAF1200F04D14BF0100B01E04BF0B2
:10104800080B2A68936923F0700393612B680422C4
:101058005A60BBF1000F0AD1BDE8F88F4BF0200BA6
:10106800EFE74BF0800BECE74BF4807BE9E76B6A2A
:1010780043EA0B036B622846FFF7D4FEECE7000057
:10108800074AD36823F4E0631B041B0C000200F436
:10109800E060184340F0BF6040F40030D060704713
:1010A80000ED00E030B4174BDB68C3F30223C3F153
:1010B8000704042C28BF04241D1D062D18D9033B42
:1010C8004FF0FF3505FA04F421EA0401994005FAC6
:1010D80003F322EA0303194300280BDB0901C9B211
:1010E80000F1604000F5614080F8001330BC7047A3
:1010F8000023E5E700F00F000901C9B2024B1954BB
:10110800F4E700BF00ED00E014ED00E0002807DB85
:1011180000F01F02400901239340024A42F82030A0
:10112800704700BF00E100E00138B0F1807F0AD2CB
:10113800064B5860064AF02182F823100020986078
:1011480007221A6070470120704700BF10E000E0D6
:1011580000ED00E000230F2B00F2D780F0B482B03E
:1011680039E0072200E00022B2403A430234674ED9
:1011780046F82420664A1468EA4302EA04064F68DF
:1011880017F4803F01D045EA0406614C2660646884
:1011980002EA04064F6817F4003F01D045EA040646
:1011A8005B4C6660A46802EA04064F6817F4801F67
:1011B80001D045EA0406564CA660E46822404E6811
:1011C80016F4001F01D045EA0402514CE2600133D5
:1011D8000F2B00F2978001229A400C6804EA02055E
:1011E800AA42F4D14C68022C01D0122C10D1DE088E
:1011F800083650F826C003F00704A7000F24BC40A7
:101208002CEA040C0C69BC4044EA0C0440F8264063
:1012180004685F000326BE40F64306EA040C4C68E7
:1012280004F00304BC4044EA0C0404604C6804F174
:10123800FF3CBCF1010F03D9112C01D0122C10D1A5
:10124800846806EA040CCC68BC4044EA0C04846058
:10125800446824EA02024C68C4F300149C40144316
:101268004460C26816408A68BA403243C2604A681D
:1012780012F0805FABD000220192264A546C44F4ED
:1012880080445464526C02F480420192019A9C0892
:10129800A61C1E4A52F8267003F0030296000F227D
:1012A800B24027EA02071C4A90423FF45CAF02F5BD
:1012B800806290421AD002F58062904218D002F5FE
:1012C8008062904216D002F58062904214D002F5F6
:1012D8008062904212D002F58062904210D002F5EE
:1012E800806290423FF43DAF08223DE701223BE790
:1012F800022239E7032237E7042235E7052233E7DC
:10130800062231E702B0F0BC704770470038014050
:10131800003C01400038024000000240002800F074
:10132800BB8170B582B00446036813F0010F3BD04F
:10133800A74B9B6803F00C03042B2CD0A44B9B6891
:1013480003F00C03082B21D06368B3F5803F4FD01E
:10135800B3F5A02F52D09E4B1A6822F480321A603F
:101368001A6822F480221A606368002B50D0FFF7B5
:1013780035FB0546964B1B6813F4003F14D1FFF765
:101388002DFB401B6428F5D903208AE1904B5B684C
:1013980013F4800FD8D08E4B1B6813F4003F03D092
:1013A8006368002B00F07A81236813F0020F55D090
:1013B800874B9B6813F00C0F3ED0854B9B6803F05E
:1013C8000C03082B33D0E368002B68D0814B012233
:1013D8001A60FFF703FB05467D4B1B6813F0020FED
:1013E80054D1FFF7FBFA401B0228F5D9032058E136
:1013F800774A136843F480331360B5E7744B1A686F
:1014080042F480221A601A6842F480321A60ABE70C
:10141800FFF7E4FA05466E4B1B6813F4003FC3D090
:10142800FFF7DCFA401B6428F5D9032039E1684B43
:101438005B6813F4800FC6D1654B1B6813F0020F6D
:1014480004D0E368012B01D001202AE1604A136827
:1014580023F0F803216943EAC1031360236813F0FA
:10146800080F40D0636963B35B4B01221A60FFF732
:10147800B5FA0546564B5B6F13F0020F33D1FFF7F1
:10148800ADFA401B0228F5D903200AE1504A136837
:1014980023F0F803216943EAC1031360DEE74D4BEB
:1014A80000221A60FFF79AFA0546494B1B6813F0A9
:1014B800020FD3D0FFF792FA401B0228F5D9032078
:1014C800EFE0454B00221A60FFF788FA0546404BCB
:1014D8005B6F13F0020F06D0FFF780FA401B02285B
:1014E800F5D90320DDE0236813F0040F79D0384BD9
:1014F8001B6C13F0805F33D100230193344B1A6CBB
:1015080042F080521A641B6C03F080530193019BD4
:101518000125324B1B6813F4807F23D0A368012B6D
:1015280034D0052B38D02A4B1A6F22F001021A67E3
:101538001A6F22F004021A67A368002B36D0FFF74F
:101548004DFA0646224B1B6F13F0020F48D1FFF7E6
:1015580045FA801B41F288339842F3D90320A0E072
:101568000025D6E71D4A136843F480731360FFF71C
:1015780035FA0646194B1B6813F4807FCED1FFF766
:101588002DFA801B0228F5D903208AE0104A136F30
:1015980043F001031367CFE70D4B1A6F42F00402C3
:1015A8001A671A6F42F001021A67C5E7FFF716FAC1
:1015B8000646074B1B6F13F0020F11D0FFF70EFA08
:1015C800801B41F288339842F3D9032069E000BFB9
:1015D8000038024000004742800E47420070004039
:1015E800E5B9A369002B5BD0304A926802F00C027F
:1015F800082A58D0022B17D02D4B00221A60FFF76B
:10160800EDF90446294B1B6813F0007F42D0FFF721
:10161800E5F9001B0228F5D9032042E0234A136CA0
:1016280023F080531364DCE7214B00221A60FFF794
:10163800D5F905461D4B1B6813F0007F06D0FFF750
:10164800CDF9401B0228F5D903202AE0E369226A74
:101658001343626A43EA8213A26A5208013A43EAD0
:101668000243E26A43EA0263104A5360104B0122C4
:101678001A60FFF7B3F904460C4B1B6813F0007FA0
:1016880006D1FFF7ABF9001B0228F5D9032008E0C3
:10169800002006E0002004E001207047012000E05F
:1016A800002002B070BD0120FBE700BF00380240F7
:1016B80060004742324B9B6803F00C03042B5CD05C
:1016C800082B01D02F4870472DE9F04B2C4B5A6856
:1016D80002F03F025B6813F4800F2BD0284B5B6845
:1016E800C3F388131E4600275C010025E41A65EB46
:1016F8000705A90141EA9461A001001B61EB0501FE
:10170800CB0043EA5073C400A01943EB07014B0216
:1017180043EAD0534402204619460023FEF794FFBB
:10172800174B5B68C3F3014301335B00B0FBF3F075
:10173800BDE8F08B124B5B68C3F388131E46002785
:101748005C010025E41A65EB0705A90141EA9461EB
:10175800A001001B61EB0501CB0043EA5073C400F4
:10176800A01943EB07018B0243EA905384022046F9
:1017780019460023FEF768FFD2E70348704700BF09
:10178800003802400024F40000127A00002800F01B
:101798009D8070B504464F4B1B6803F00F038B42C6
:1017A80009D2CBB24B4A1370136803F00F038B4274
:1017B80001D0012070BD236813F0020F17D013F079
:1017C800040F04D0444A936843F4E05393602368B9
:1017D80013F0080F04D0404A936843F460439360C1
:1017E8003D4A936823F0F003A068034393600D46D5
:1017F800236813F0010F32D06368012B21D09A1EA1
:10180800012A25D9344A126812F0020F60D03249F1
:101818008A6822F0030213438B60FFF7DFF806465D
:101828002D4B9B6803F00C036268B3EB820F16D054
:10183800FFF7D4F8801B41F288339842F0D903208F
:10184800B8E7254A126812F4003FE0D10120B1E759
:10185800214A126812F0007FD9D10120AAE71D4B56
:101868001B6803F00F03AB4209D9EAB2194B1A708F
:101878001B6803F00F03AB4201D001209AE72368ED
:1018880013F0040F06D0144A936823F4E053E16878
:101898000B439360236813F0080F07D00E4A936830
:1018A80023F46043216943EAC1039360FFF702FF11
:1018B800094B9B68C3F30313084AD35CD840084B11
:1018C80018600020FFF740F8002073E701207047F8
:1018D80001206FE7003C024000380240E022000887
:1018E8001800002010B4036A046A24F0010404629A
:1018F800846924F0F00444EA021223F00A030B433B
:10190800826103625DF8044B704710B4036A23F0E8
:10191800100303628469036A24F4704444EA0232BF
:1019280023F0A00343EA0113826103625DF8044BCC
:101938007047836823F07003194341F00701816001
:1019480070470268D36843F00103D3600268936864
:1019580003F00703062B03D0136843F00103136059
:1019680000207047704770477047704710B50446AD
:1019780003681A6912F0020F11D0DA6812F0020F28
:101988000DD06FF002021A610123037703689B6987
:1019980013F0030F70D0FFF7E6FF002323772368C7
:1019A8001A6912F0040F12D0DA6812F0040F0ED080
:1019B8006FF004021A610223237723689B6913F4EA
:1019C800407F5FD02046FFF7CEFF002323772368B0
:1019D8001A6912F0080F12D0DA6812F0080F0ED048
:1019E8006FF008021A61042323772368DB6913F078
:1019F800030F4ED02046FFF7B6FF00232377236856
:101A08001A6912F0100F12D0DA6812F0100F0ED007
:101A18006FF010021A61082323772368DB6913F437
:101A2800407F3DD02046FFF79EFF002323772368A1
:101A38001A6912F0010F03D0DA6812F0010F36D1DB
:101A480023681A6912F0800F03D0DA6812F0800F49
:101A580034D123681A6912F0400F03D0DA6812F003
:101A6800400F32D123681A6912F0200F03D0DA68C8
:101A780012F0200F30D110BDFFF774FF2046FFF79A
:101A880073FF8AE72046FFF76DFF2046FFF76CFFDC
:101A98009BE72046FFF766FF2046FFF765FFACE7A8
:101AA8002046FFF75FFF2046FFF75EFFBDE76FF0B8
:101AB80001021A61204600F05FFAC1E76FF0800268
:101AC8001A61204600F02AF9C3E76FF040021A6154
:101AD8002046FFF74AFFC5E76FF020021A6120464B
:101AE80000F01BF9C7E700000368304A904212D0A3
:101AF800B0F1804F0FD0A2F57C4290420BD002F596
:101B08008062904207D002F58062904203D002F5CD
:101B18007842904203D123F070034A681343234A62
:101B280090422AD0B0F1804F27D0A2F57C42904253
:101B380023D002F5806290421FD002F58062904265
:101B48001BD002F57842904217D002F570529042AD
:101B580013D002F5806290420FD002F58062904265
:101B68000BD0A2F59832904207D002F580629042DD
:101B780003D002F58062904203D123F44073CA680F
:101B8800134323F080034A69134303608B68C362DD
:101B98000B688362054B984203D003F58063984233
:101BA80001D10B69036301234361704700000140C1
:101BB800A8B110B5044690F83D305BB1022384F813
:101BC8003D30211D2068FFF78FFF012384F83D3049
:101BD800002010BD80F83C3000F0B4FAEEE7012098
:101BE800704710B4846824F47F4442EA03230B430B
:101BF800234383605DF8044B704790F83C30012B19
:101C080066D010B50446012380F83C30022380F8E2
:101C18003D300268936823F47F4323F07703936091
:101C28000B68402B4AD013D9602B3DD01ED9702B9E
:101C380028D0B3F5005F30D1CB684A68896800685E
:101C4800FFF7CFFF2268936843F48043936024E052
:101C5800102B06D004D9202B03D0302B01D01CE048
:101C6800DBB919462068FFF764FE16E0502B14D143
:101C7800CA6849680068FFF735FE50212068FFF7F9
:101C880058FE0AE0CB684A6889680068FFF7A9FF30
:101C98002268936843F077039360012384F83D300A
:101CA800002084F83C0010BDCA6849680068FFF746
:101CB8002CFE60212068FFF73CFEEEE7CA68496801
:101CC8000068FFF70FFE40212068FFF732FEE4E7C7
:101CD8000220704790F83C30012B1CD070B40126CC
:101CE80080F83C60022380F83D30026855689368AC
:101CF80025F070050C682C4323F080054B682B43B6
:101D080054600268936080F83D60002380F83C309E
:101D1800184670BC70470220704770477047000033
:101D280084B000220192104B196B41F080011963B5
:101D3800196B01F08001019101990292196B41F030
:101D480001011963196B01F00101029102990392D3
:101D58001A6B42F002021A631B6B03F0020303932F
:101D6800039B04B0704700BF0038024008B50C4818
:101D78000C4B03601523436000238360C3604FF45A
:101D8800402202614FF480124261037643768376E3
:101D98000122C27603774377FEF726FE08BD00BF0F
:101DA800D00000200064004030B587B000240294C1
:101DB80003940494059400940194104D4FF08043CB
:101DC8002B604AF210436B60AC604FF47A73EB609F
:101DD8002C61AC612846FFF7EBFE4FF48053029369
:101DE80002A92846FFF709FF2023009301946946BA
:101DF8002846FFF76FFF07B030BD00BF90000020F6
:101E0800401A70EEC07A07EE100AF8EEC70A60EEC4
:101E1800A70A521A07EE902AF8EEE77A80EEA77A18
:101E280037EE000A7047000030B595B03022002127
:101E380008A800F03DFA002403940494059406943D
:101E4800079401941C4B1A6C42F080521A641B6C64
:101E580003F080530193019B0294184B1A6842F4D3
:101E680080421A601B6803F480430293029B01239B
:101E780008934FF48033099302250E954FF480039D
:101E88000F93082310934FF4A87311931295072307
:101E9800139308A8FFF742FA0F23039304950594B8
:101EA8004FF4A05306934FF480530793052103A8DA
:101EB800FFF76CFC15B030BD0038024000700040E0
:101EC80008B5084901220A6200234B610B610B60C7
:101ED8004B608B60CB608B61CA610348FEF72AFEBA
:101EE80008BD00BF50000020D000002008B5FEF754
:101EF8004FFDFFF799FFFFF713FFFFF737FFFFF7D6
:101F080053FFFFF7DDFF044C03212046FEF770FF67
:101F18002046FEF7A5FEFEE7D00000207047704778
:101F28007047000008B50C4B0C4A00210C48FEF71E
:101F3800C5FE0C4B1B7803B108BD0B48FFF701FD2C
:101F4800054B9B78094A1370094A1370054A1378A0
:101F580001331370F0E700BF78000020140100205F
:101F6800D000002038000020900000208C000020C5
:101F7800800000200000000070B52DED028B364E69
:101F8800364D374CD5ED000A94ED010AFF220021A9
:101F98003078FFF735FFB0EE408A324B83ED000A08
:101FA8007678D5ED010A94ED020AFF220021304629
:101FB800FFF726FF2C4B83ED000AD4ED037A9FED43
:101FC8002B7A27EE877A38EE478A38EE400A284B74
:101FD80083ED000AF5EEC07AF1EE10FA31D91F4B05
:101FE80093ED028A20EE080AB6EE008A20EE080A6F
:101FF80037EE800A1A4B83ED030A194BD868FEF7AF
:1020080043FA13A3D3E90023FEF714FB78B1194B65
:102018001978194B1B78C81A104A127B904202DCB7
:102028005B1A9A4203DA0E4A137C01331374114B7C
:102038001978114A1170084A92781A70BDEC028B0F
:1020480070BD022ECBD90022E260D6E7AFF3008044
:10205800295C8FC2F5A820407800002008000020E5
:10206800380000208800002030010020BC74933D17
:102078007C000020800000208C00002082B000211D
:1020880000910B4B5A6C42F480425A645A6C02F429
:1020980080420092009A01911A6C42F080521A64B0
:1020A8001B6C03F080530193019B02B0704700BF83
:1020B8000038024030B589B0002303930493059398
:1020C8000693079302681D4B9A4201D009B030BDB0
:1020D8000024019403F5EA331A6C42F000721A6482
:1020E8001A6C02F000720192019A02941A6B42F083
:1020F80002021A631B6B03F002030293029B4FF464
:102108004073039302250495032306930923079339
:1021180003A90B48FFF71EF8224621461320FEF7B5
:10212800C1FF1320FEF7F2FF2A4621461420FEF7CE
:10213800B9FF1420FEF7EAFFC8E700BF00640040BB
:10214800000402400368B3F1804F00D0704700B527
:1021580083B00021019103F50E331A6C42F001029D
:102168001A641B6C03F001030193019B01221C20DC
:10217800FEF798FF1C20FEF7C9FF03B05DF804FBCB
:102188007047FEE7FEE7FEE7FEE7704770477047D7
:1021980008B5FEF717FC08BD08B50248FEF743FE70
:1021A80008BD00BFD000002008B50248FEF73BFE7E
:1021B80008BD00BFD000002008B50248FFF7D6FBD5
:1021C80008BD00BF900000200F49D1F8883043F4C3
:1021D8007003C1F888300D4B1A6842F001021A608A
:1021E800002098601A6822F0847222F480321A6003
:1021F800074A5A601A6822F480221A60D8604FF0A1
:1022080000638B60704700BF00ED00E000380240BB
:1022180010300024DFF834D0002103E00C4B5B5869
:10222800435004310B480C4B42189A42F6D30B4AE0
:1022380002E0002342F8043B094B9A42F9D3FFF726
:10224800C3FF00F011F8FFF751FE704700000220AD
:1022580008230008000000201C0000201C000020AB
:1022680034010020FEE7000070B50D4E0D4CA41B94
:10227800A4100025A54209D10B4E0C4C00F020F803
:10228800A41BA4100025A54205D170BD56F8253021
:1022980098470135EEE756F8253098470135F2E7BB
:1022A8000023000800230008002300080423000876
:1022B80002440346934200D1704703F8011BF9E733
:1022C800F8B500BFF8BC08BC9E467047F8B500BF1B
:0822D800F8BC08BC9E467047EB
:1022E00000000000000000000102030406070809C6
:0822F0000000000001020304DC
:0822F80088E3FF7F01000000F4
:04230000AD01000823
:042304008901000843
:102308000100000010000000000000400000C04074
:0C2318000000803F230000000024F400BF
:040000050800221DB0
:00000001FF
