:020000040800F2
:1000000000000220D526000831260008332600080B
:1000100035260008372600083926000800000000B1
:100020000000000000000000000000003B26000867
:100030003D260008000000003F2600084126000879
:100040002527000825270008252700082527000860
:100050002527000825270008252700082527000850
:100060002527000825270008252700082527000840
:100070002527000825270008252700082527000830
:1000800025270008252700082527000849260008FD
:1000900059260008252700082527000825270008DD
:1000A0002527000825270008252700082527000800
:1000B00069260008252700082527000825270008AD
:1000C00025270008252700082527000825270008E0
:1000D00025270008252700082527000825270008D0
:1000E00025270008252700082527000825270008C0
:1000F00025270008252700082527000825270008B0
:10010000252700082527000825270008252700089F
:10011000252700082527000825270008252700088F
:10012000792600082527000825270008252700082C
:10013000252700082527000825270008252700086F
:10014000252700082527000825270008252700085F
:10015000252700082527000825270008252700084F
:10016000252700082527000825270008252700083F
:100170002527000825270008252700080000000083
:080180002527000825270008CF
:1001880010B5054C237833B9044B13B10448AFF3C9
:1001980000800123237010BD0C0000200000000027
:1001A8008027000808B5034B1BB103490348AFF388
:1001B800008008BD00000000100000208027000813
:1001C80053B94AB9002908BF00281CBF4FF0FF31B6
:1001D8004FF0FF3000F072B9ADF1080C6DE904CEB4
:1001E80000F006F8DDF804E0DDE9022304B070470A
:1001F8002DE9F047089E04468846002B4BD18A42D9
:10020800154667D9B2FA82F24AB1C2F1200701FA5B
:1002180002F320FA07F7954047EA030894404FEAAB
:10022800154E230CB8FBFEF71FFA85FC0EFB17884A
:1002380043EA084307FB0CF1994209D9EB1807F187
:10024800FF3080F01B81994240F21881023F2B4415
:100258005B1AA4B2B3FBFEF00EFB103344EA03446E
:1002680000FB0CFCA44509D92C1900F1FF3380F0E0
:100278000781A44540F2048102382C4440EA074033
:10028800A4EB0C0400271EB1D4400023C6E90043A8
:100298003946BDE8F0878B4209D9002E00F0EB8083
:1002A8000027C6E9000138463946BDE8F087B3FAA9
:1002B80083F7002F47D18B4202D3824200F2FA80A3
:1002C800841A61EB030301209846002EE0D0C6E9AA
:1002D8000048DDE702B9FFDEB2FA82F2002A40F0F8
:1002E8008F80491B4FEA154E1FFA85F80127B1FB8D
:1002F800FEFC230C0EFB1C1143EA014308FB0CF126
:10030800994207D9EB180CF1FF3002D2994200F25A
:10031800CD808446591AA3B2B1FBFEF00EFB10142F
:1003280043EA044408FB00F8A04507D92C1900F15A
:10033800FF3302D2A04500F2B6801846A4EB0804A9
:1003480040EA0C409FE7C7F1200CBB4022FA0CFEA4
:100358004EEA030E01FA07F420FA0CF521FA0CF321
:100368004FEA1E482543B3FBF8F92C0C08FB193358
:100378001FFA8EFA44EA034309FB0AF49C4202FA84
:1003880007F200FA07F10BD91EEB030309F1FF305E
:1003980080F087809C4240F28480A9F1020973446E
:1003A8001B1BADB2B3FBF8F008FB103345EA03445E
:1003B80000FB0AFAA24508D91EEB040400F1FF333A
:1003C8006BD2A24569D90238744440EA0940A0FBBF
:1003D8000289A4EB0A044C45C2464B4654D351D07B
:1003E800002E69D0B1EB0A0564EB030404FA0CFC97
:1003F800FD40FC404CEA0505C6E90054002747E7E4
:10040800C2F1200320FA03F7954001FA02F021FA1D
:1004180003F34FEA154E3843010CB3FBFEF71FFAFE
:1004280085F80EFB173341EA034107FB08F38B42BB
:1004380004FA02F407D9691807F1FF3C2FD28B425E
:100448002DD9023F2944CB1A81B2B3FBFEF00EFB33
:10045800103341EA034100FB08F38B4207D96918BE
:1004680000F1FF3C17D28B4215D902382944C91A2A
:1004780040EA07473BE73746304609E70746E7E6DD
:100488001846FBE64145ABD2B8EB020A69EB0E020F
:1004980001381346A4E76046E9E7184695E767463A
:1004A800D1E781467CE702382C4447E7ACF1020CDF
:1004B8002B442FE7384608E73746E9E6704700BF80
:1004C80010B504460E4B18784FF47A73B3FBF0F36B
:1004D8000C4A1068B0FBF3F000F056FE68B90F2C18
:1004E80001D901200AE0002221464FF0FF3000F038
:1004F80009FE034B5C60002000E0012010BD00BF36
:10050800000000200800002008B50B4B1A6842F4D0
:1005180000721A601A6842F480621A601A6842F41B
:1005280080721A60032000F0DBFD0020FFF7C8FF8F
:1005380001F0A6FF002008BD003C0240034A1168F4
:10054800034B1B780B441360704700BF2800002042
:1005580000000020014B1868704700BF28000020E9
:100568004A4B5A6822F440325A605A6841680A4332
:100578005A600268536823F48073536002685368B2
:10058800016943EA012353600268536823F040730A
:1005980053600268536881680B435360026893682C
:1005A80023F40063936002689368C1680B43936007
:1005B800826A374B9A424BD00268936823F0706383
:1005C800936002689368816A0B439360026893683A
:1005D80023F04053936002689368C16A0B439360A9
:1005E8000268936823F00203936002689368017EAF
:1005F80043EA4103936090F82030002B33D102681E
:10060800536823F4006353600268D36A23F47003C9
:10061800D3620168CB6AC269013A43EA0253CB62EA
:100628000268936823F4007393600268936890F8F3
:10063800301043EA412393600268936823F480638F
:10064800936002689368416943EA81239360704725
:100658000268936823F0706393600268936823F0DC
:1006680040539360BCE70268536843F400635360E7
:100678000268536823F46043536001684B68426A18
:10068800013A43EA42334B60BEE700BF0023014012
:100698000100000F38B310B50446036C43B1236C56
:1006A80013F0100F0BD00120002384F83C3010BD4C
:1006B80001F002FF0023636484F83C30EFE7236C09
:1006C80023F4885323F0020343F0020323642046F3
:1006D800FFF746FF00206064236C23F0030343F018
:1006E80001032364E0E701207047000030B583B0C0
:1006F8000023019390F83C30012B00F09B800123EC
:1007080080F83C300468A36813F0010F13D1A36884
:1007180043F00103A3604D4B1C684D4BA3FB04340D
:10072800A40C04EB4404019402E0019C013C0194F4
:10073800019C002CF9D103689C6814F0010F7BD050
:10074800046C24F4E06424F0010444F48074046428
:100758005B6813F4806F05D0036C23F4405343F4B3
:1007680080530364036C13F4805F38D0436C23F028
:100778000603436413460446002280F83C20826B3B
:100788003448D063A26B34481064A26B3348D064F9
:1007980022686FF0220010602568686840F0806069
:1007A80068602568A86840F48070A86020680A46D8
:1007B80000F14C01A06B00F0DFFD294B5B6813F0E2
:1007C8001F0F27D12368274A934219D002F5807258
:1007D800934207D0244A93420BD000202DE00023F7
:1007E8004364C7E702F50072526812F01F0F07D082
:1007F800F0E702F58072526802F01F020F2A1ED835
:100808009A6812F0405F1CD19A6842F080429A6060
:10081800002012E02368134A934201D000200CE024
:100828009A6812F0405F0ED19A6842F080429A604E
:10083800002002E0022000E0002003B030BD0020CC
:10084800FBE70020F9E70020F7E700BF08000020D9
:1008580083DE1B439B080008790800088508000808
:1008680000230140002001400022014070477047EA
:1008780008B5806BFFF7FBFF08BD704708B5806BB4
:1008880040230364436C43F004034364FFF7F5FF1C
:1008980008BD08B5836B1A6C12F0500F26D11A6C7C
:1008A80042F400721A641A68916811F0405F19D115
:1008B800197EB9B9D16A11F4700F03D0916811F497
:1008C800806F0FD1516821F0200151601A6C22F419
:1008D80080721A641A6C12F4805F03D11A6C42F0A9
:1008E80001021A641846FFF7C1FF08BD1A6C12F01E
:1008F800100F03D19B6BDB6C9847F6E71846FFF7A0
:10090800BCFFF2E730B482B00023019390F83C308A
:10091800012B00F0B780012380F83C300B68092BCD
:100928003ED90568EA689BB203EB43031E3B0724E4
:1009380004FA03F322EA0303EB600568EA688C68AB
:100948000B8803EB43031E3B04FA03F31343EB60EA
:100958004B68062B3AD805686A6B03EB8303053BA3
:100968001F2404FA03F322EA03036B6305686A6B26
:100978004B6803EB8303053B0C8804FA03F313432A
:100988006B630268404B9A4250D002683E4B9A42D1
:1009980055D0002380F83C30184602B030BC704770
:1009A80005682A699BB203EB4303072404FA03F39F
:1009B80022EA03032B6105682A698C680B8803EB1C
:1009C800430304FA03F313432B61C1E70C2B16D836
:1009D80005682A6B03EB8303233B1F2404FA03F304
:1009E80022EA03032B6305682A6B4B6803EB830336
:1009F800233B0C8804FA03F313432B63C1E7056810
:100A0800EA6A03EB8303413B1F2404FA03F322EA57
:100A18000303EB620568EA6A4B6803EB8303413B17
:100A28000C8804FA03F31343EB62AAE70B68122B52
:100A3800ABD1164A536843F480035360A5E70B68AB
:100A4800103B012BA5D8114A536843F400035360A7
:100A58000B68102B9DD10E4B1B6802F1467202F5F4
:100A68002E3202F28332A2FB03239B0C03EB830397
:100A78005A00019202E0019B013B0193019B002B6C
:100A8800F9D186E7022088E70020014000230140D1
:100A980008000020002800F0A18038B5044690F82E
:100AA8002030D3B12268136823F002031360FFF7E4
:100AB80051FD054623685A6812F0020F10D0FFF75F
:100AC80049FD401B0A28F5D9636A43F40033636281
:100AD800052384F82030012038BD01F03FFDE1E70F
:100AE8001A6842F001021A60FFF734FD05462368D0
:100AF8005A6812F0010F0DD1FFF72CFD401B0A2890
:100B0800F5D9636A43F400336362052384F820301F
:100B18000120E1E7227E012A3DD01A6822F08002F6
:100B28001A60637E012B3BD02268136823F04003D0
:100B38001360A37E012B39D02268136823F02003A9
:100B48001360E37E012B37D02268136843F010034B
:100B58001360237F012B35D02268136823F0080324
:100B68001360637F012B33D02268136823F00403DA
:100B78001360A368E268134322691343626913434D
:100B88006268013A21681343CB6100206062012347
:100B980084F82030A0E71A6842F080021A60C0E7A3
:100BA8002268136843F040031360C2E722681368A1
:100BB80043F020031360C4E72268136823F010038E
:100BC8001360C6E72268136843F008031360C8E798
:100BD8002268136843F004031360CAE701207047D2
:100BE80090F82030013BDBB2012B05D9436A43F46E
:100BF800802343620120704770B4434BD3F800222E
:100C080042F00102C3F80022D3F8002222F47C52F9
:100C1800C3F80022D3F80022486A42EA0022C3F847
:100C280000224A6902F01F02012000FA02F2D3F8FA
:100C38001C42D0430440C3F81C42CB69B3B9324BC1
:100C4800D3F80C420440C3F80C42CE688D884C6936
:100C580045EA0645483443F834508E680C884D6997
:100C680044EA0644483503EBC5035C60CB69012BB5
:100C78001DD08B69002B32D1234CD4F804320340A9
:100C8800C4F804320B698BBB1F4BD3F814422040C5
:100C9800C3F814020B6A012B2FD01B4AD2F800327A
:100CA80023F00103C2F80032002070BC7047164BD5
:100CB800D3F80C421443C3F80C420E688D884C6973
:100CC80045EA0645483443F834508E688C894D69A6
:100CD80044EA0644483503EBC5035C60C9E70A4C9F
:100CE800D4F804321343C4F80432CBE70648D0F8EA
:100CF80014321343C0F81432CCE70349D1F81C323C
:100D08001A43C1F81C22C8E70064004038B590F8BF
:100D18002030DBB2012B05D0436A43F40023436241
:100D2800012038BD0446022380F820300268136889
:100D380023F001031360FFF70DFC054623685B6889
:100D480013F0010F0DD0FFF705FC401B0A28F5D959
:100D5800636A43F400336362052384F8203001207A
:100D6800DFE700206062DCE770B490F82040056897
:100D7800AD68013CE4B2012C06D9436A43F48023F0
:100D88004362012070BC704715F0E05F5BD0C5F38B
:100D98000165022D3ED80124AC401C608B68002BF5
:100DA8003ED10E68CB68046843EA465605F118033D
:100DB8001B01E65003680C6905F1180603EB0613DE
:100DC8005C600B7D012B36D0D17993791B0443EA03
:100DD8000163517943EA01231479016823432C0103
:100DE8002144C1F88C31D17893781B0443EA01631C
:100DF800517843EA0123117802680B432244C2F870
:100E08008831026818352D01535943F001035351B5
:100E18000020B7E7436A43F4000343620120B1E7C7
:100E28004C6843EAC403CC680668234305F11804F8
:100E380024013351BEE7036803EB0613596841F4F4
:100E480080715960C0E7436A43F40013436201208C
:100E580098E790F82030013BDBB2012B05D9436AB3
:100E680043F48023436201207047026853691943A1
:100E7800516100207047704770477047704770474E
:100E880070477047704770472DE9F84F054603686B
:100E98005C695F689E68D3F80C90D3F81080D3F82B
:100EA80018A014F0010F5AD016F0010F17D0012224
:100EB8009A6016F0020F08D116F0040F30D116F020
:100EC800080F07D04FF4805B0BE001F0CFFA4FF02A
:100ED800000B06E0FFF7CFFF4FF0000B01E04FF0EB
:100EE800000B16F4807F0BD02B684FF480729A6049
:100EF80016F4007F17D116F4806F18D04BF4005BFE
:100F080016F4803F2DD02B684FF480329A6016F487
:100F1800003F16D116F4802F17D04BF4004B20E079
:100F28004FF4006BDDE7284601F0A1FAE8E716F474
:100F3800006F02D04BF4804BE2E72846FFF79CFF96
:100F4800DEE7284601F094FA0BE016F4002F02D0F1
:100F58004BF4803B05E02846FFF78FFF01E04FF098
:100F6800000B14F0080F07D019F0100F04D04BF441
:100F7800007B2B681022DA6014F0040F02D019F0FD
:100F8800080F60D114F0020F04D02B68DB6813F04F
:100F9800030F5FD114F0400F07D018F0100F04D0E2
:100FA8004BF4806B2B6810221A6114F0200F02D0CA
:100FB80018F0080F52D114F0100F04D02B681B69D9
:100FC80013F0030F51D114F4003F02D017F0100FA3
:100FD8004FD114F4803F02D017F0080F50D114F409
:100FE800004F67D017F0040F61D014F4807F04D04D
:100FF8001AF0010F01D04BF0010B14F4007F04D05C
:101008001AF0020F01D04BF0020B14F4806F04D0D9
:101018001AF0040F01D04BF0040B14F4006F46D003
:101028001AF0700A43D0BAF1300F48D02FD9BAF16C
:10103800500F47D0BAF1600F47D0BAF1400F31D105
:101048004BF0400B2EE02B680822DA602846FFF7A9
:1010580015FF97E7284601F00CFA9BE72B68082252
:101068001A612846FFF70CFFA5E72846FFF707FF98
:10107800A9E72B6810225A602846FFF702FFA8E765
:101088002B6808225A602846FFF7FCFEA7E7BAF14A
:10109800100F05D0BAF1200F04D14BF0100B01E06E
:1010A8004BF0080B2A68936923F0700393612B684F
:1010B80004225A60BBF1000F0AD1BDE8F88F4BF04B
:1010C800200BEFE74BF0800BECE74BF4807BE9E774
:1010D8006B6A43EA0B036B622846FFF7D4FEECE722
:1010E800074AD36823F4E0631B041B0C000200F4D6
:1010F800E060184340F0BF6040F40030D0607047B3
:1011080000ED00E030B4174BDB68C3F30223C3F1F2
:101118000704042C28BF04241D1D062D18D9033BE1
:101128004FF0FF3505FA04F421EA0401994005FA65
:1011380003F322EA0303194300280BDB0901C9B2B0
:1011480000F1604000F5614080F8001330BC704742
:101158000023E5E700F00F000901C9B2024B19545A
:10116800F4E700BF00ED00E014ED00E0002807DB25
:1011780000F01F02400901239340024A42F8203040
:10118800704700BF00E100E00138B0F1807F0AD26B
:10119800064B5860064AF02182F823100020986018
:1011A80007221A6070470120704700BF10E000E076
:1011B80000ED00E030B405682C6824F480242C602D
:1011C800046863608368402B05D0036899600368EE
:1011D800DA6030BC704703689A600368D960F8E742
:1011E8000268D3B2103B0B49A1FB03131B090A4940
:1011F800C95CC165032B06D822F47F7222F0030272
:101208008265806D704722F47F7222F003020432F7
:101218008265F6E7ABAAAAAA98270008836A8269BA
:1012280092B9012B0AD01BB1022B01D000207047C4
:10123800C36A13F0807F2CD100207047C36AB3F1D2
:10124800C07F28D000207047B2F5005F05D0022B80
:1012580029D9032B15D000207047032B03D8DFE8CA
:1012680003F01C041C0A00207047C36A13F0807F37
:1012780015D100207047C36AB3F1C07F11D0002098
:101288007047C36A13F0807F01D0012070470020A7
:1012980070470120704701207047012070470120E6
:1012A80070470120704701207047000070B5044660
:1012B800FFF750F9002C5BD00546002384F8343042
:1012C800022384F835302268136823F00103136081
:1012D80023681A6812F0010F0AD0FFF73BF9401B88
:1012E8000528F5D920236365032084F8350070BDEF
:1012F8001A68204810406168A2680A43E1680A43F6
:1013080021690A4361690A43A1690A43E1690A43F9
:10131800216A0A430243616A04291ED01A602668BA
:10132800756925F00705636A1D43042B07D1A36A75
:101338001D43E36A1BB12046FFF770FF90B9756142
:101348002046FFF74DFFE26D3F2393408360002066
:101358006065012384F83530C9E7E16A206B0143F1
:101368000A43DBE740236365012084F83500BEE7C4
:101378000120BCE73F8010F038B5856D90F8344007
:10138800012C31D0012480F8344090F83540E4B283
:10139800012C04D0002380F83430022038BD0446E4
:1013A800022084F83500002060652046FFF702FF20
:1013B800E26D3F239340AB602268136843F0160345
:1013C80013602268536943F080035361236C23B18F
:1013D8002268136843F0080313602268136843F017
:1013E800010313600020D9E70220D7E7F0B583B0E6
:1013F800044600230193724B1D68724BA3FB05350D
:10140800AD0A876D3E68C26D08239340334210D001
:1014180003681A6812F0040F0BD01A6822F004024D
:101428001A60C26D08239340BB60436D43F001030B
:101438004365E26D01239340334209D02268526923
:1014480012F0800F04D0BB60636D43F00203636544
:10145800E26D04239340334209D02268126812F0E7
:10146800020F04D0BB60636D43F004036365E26D53
:1014780010239340334224D02268126812F0080FD8
:101488001FD0BB6023681A6812F4802F0DD01B6828
:1014980013F4002F04D1236C9BB12046984710E029
:1014A800A36C73B1204698470BE01A6812F4807F4A
:1014B80003D11A6822F008021A60236C0BB1204687
:1014C8009847E26D20239340334255D02268126832
:1014D80012F0100F50D0BB6094F83530DBB2052BFA
:1014E8000ED023681A6812F4802F33D01B6813F4C7
:1014F800002F2AD1636C002B3ED0204698473BE052
:101508002268136823F0160313602268536923F0D6
:1015180080035361236CA3B12268136823F0080386
:101528001360E26D3F239340BB60002384F834309E
:10153800012384F83530236D002B3FD0204698478F
:101548003CE0A36C002BE7D1EBE7E36BA3B12046AB
:10155800984711E01A6812F4807F09D11A6822F0BE
:1015680010021A60002384F83430012384F83530DF
:10157800E36B0BB120469847636DFBB1636D13F0C5
:10158800010F17D0052384F835302268136823F03B
:1015980001031360019B01330193AB4204D8236814
:1015A8001B6813F0010FF5D1002384F834300123B0
:1015B80084F83530E36C0BB12046984703B0F0BD92
:1015C80008000020B5814E1B00230F2B00F2D780A6
:1015D800F0B482B039E0072200E00022B2403A437A
:1015E8000234674E46F82420664A1468EA4302EA41
:1015F80004064F6817F4803F01D045EA0406614CA1
:101608002660646802EA04064F6817F4003F01D0B8
:1016180045EA04065B4C6660A46802EA04064F6863
:1016280017F4801F01D045EA0406564CA660E4680A
:1016380022404E6816F4001F01D045EA0402514CBE
:10164800E26001330F2B00F2978001229A400C6868
:1016580004EA0205AA42F4D14C68022C01D0122CEB
:1016680010D1DE08083650F826C003F00704A7009A
:101678000F24BC402CEA040C0C69BC4044EA0C045E
:1016880040F8264004685F000326BE40F64306EA99
:10169800040C4C6804F00304BC4044EA0C040460E5
:1016A8004C6804F1FF3CBCF1010F03D9112C01D0A7
:1016B800122C10D1846806EA040CCC68BC4044EAB9
:1016C8000C048460446824EA02024C68C4F30014E1
:1016D8009C4014434460C26816408A68BA4032434A
:1016E800C2604A6812F0805FABD000220192264A9D
:1016F800546C44F480445464526C02F48042019265
:10170800019A9C08A61C1E4A52F8267003F0030290
:1017180096000F22B24027EA02071C4A90423FF483
:101728005CAF02F5806290421AD002F58062904266
:1017380018D002F58062904216D002F5806290427D
:1017480014D002F58062904212D002F58062904275
:1017580010D002F5806290423FF43DAF08223DE789
:1017680001223BE7022239E7032237E7042235E763
:10177800052233E7062231E702B0F0BC7047704714
:1017880000380140003C014000380240000002409F
:10179800002800F0BB8170B582B00446036813F0DE
:1017A800010F3BD0A74B9B6803F00C03042B2CD0F4
:1017B800A44B9B6803F00C03082B21D06368B3F596
:1017C800803F4FD0B3F5A02F52D09E4B1A6822F419
:1017D80080321A601A6822F480221A606368002B2B
:1017E80050D0FEF7B7FE0546964B1B6813F4003F32
:1017F80014D1FEF7AFFE401B6428F5D903208AE117
:10180800904B5B6813F4800FD8D08E4B1B6813F491
:10181800003F03D06368002B00F07A81236813F03F
:10182800020F55D0874B9B6813F00C0F3ED0854BA9
:101838009B6803F00C03082B33D0E368002B68D0B7
:10184800814B01221A60FEF785FE05467D4B1B6819
:1018580013F0020F54D1FEF77DFE401B0228F5D984
:10186800032058E1774A136843F480331360B5E7DF
:10187800744B1A6842F480221A601A6842F4803263
:101888001A60ABE7FEF766FE05466E4B1B6813F45D
:10189800003FC3D0FEF75EFE401B6428F5D9032045
:1018A80039E1684B5B6813F4800FC6D1654B1B6840
:1018B80013F0020F04D0E368012B01D001202AE1C4
:1018C800604A136823F0F803216943EAC1031360EF
:1018D800236813F0080F40D0636963B35B4B0122A0
:1018E8001A60FEF737FE0546564B5B6F13F0020F82
:1018F80033D1FEF72FFE401B0228F5D903200AE159
:10190800504A136823F0F803216943EAC1031360BE
:10191800DEE74D4B00221A60FEF71CFE0546494BD8
:101928001B6813F0020FD3D0FEF714FE401B0228E9
:10193800F5D90320EFE0454B00221A60FEF70AFEB6
:101948000546404B5B6F13F0020F06D0FEF702FE10
:10195800401B0228F5D90320DDE0236813F0040FAB
:1019680079D0384B1B6C13F0805F33D1002301937F
:10197800344B1A6C42F080521A641B6C03F080538B
:101988000193019B0125324B1B6813F4807F23D000
:10199800A368012B34D0052B38D02A4B1A6F22F0BC
:1019A80001021A671A6F22F004021A67A368002B53
:1019B80036D0FEF7CFFD0646224B1B6F13F0020F01
:1019C80048D1FEF7C7FD801B41F288339842F3D90E
:1019D8000320A0E00025D6E71D4A136843F480736E
:1019E8001360FEF7B7FD0646194B1B6813F4807F9A
:1019F800CED1FEF7AFFD801B0228F5D903208AE07F
:101A0800104A136F43F001031367CFE70D4B1A6FAA
:101A180042F004021A671A6F42F001021A67C5E71A
:101A2800FEF798FD0646074B1B6F13F0020F11D007
:101A3800FEF790FD801B41F288339842F3D90320CA
:101A480069E000BF0038024000004742800E47426C
:101A580000700040E5B9A369002B5BD0304A92685A
:101A680002F00C02082A58D0022B17D02D4B002266
:101A78001A60FEF76FFD0446294B1B6813F0007FC0
:101A880042D0FEF767FD001B0228F5D9032042E08B
:101A9800234A136C23F080531364DCE7214B0022A4
:101AA8001A60FEF757FD05461D4B1B6813F0007FB3
:101AB80006D0FEF74FFD401B0228F5D903202AE087
:101AC800E369226A1343626A43EA8213A26A5208EC
:101AD800013A43EA0243E26A43EA0263104A536066
:101AE800104B01221A60FEF735FD04460C4B1B68AB
:101AF80013F0007F06D1FEF72DFD001B0228F5D953
:101B0800032008E0002006E0002004E001207047E0
:101B1800012000E0002002B070BD0120FBE700BFFB
:101B28000038024060004742324B9B6803F00C03C8
:101B3800042B5CD0082B01D02F4870472DE9F04BBF
:101B48002C4B5A6802F03F025B6813F4800F2BD0CD
:101B5800284B5B68C3F388131E4600275C010025E9
:101B6800E41A65EB0705A90141EA9461A001001B8D
:101B780061EB0501CB0043EA5073C400A01943EBA5
:101B880007014B0243EAD05344022046194600237A
:101B9800FEF716FB174B5B68C3F3014301335B0089
:101BA800B0FBF3F0BDE8F08B124B5B68C3F388130E
:101BB8001E4600275C010025E41A65EB0705A9010C
:101BC80041EA9461A001001B61EB0501CB0043EAE7
:101BD8005073C400A01943EB07018B0243EA9053EA
:101BE8008402204619460023FEF7EAFAD2E70348A2
:101BF800704700BF003802400024F40000127A0049
:101C0800002800F09D8070B504464F4B1B6803F018
:101C18000F038B4209D2CBB24B4A1370136803F0FF
:101C28000F038B4201D0012070BD236813F0020F0F
:101C380017D013F0040F04D0444A936843F4E053D8
:101C48009360236813F0080F04D0404A936843F464
:101C5800604393603D4A936823F0F003A068034310
:101C680093600D46236813F0010F32D06368012B8F
:101C780021D09A1E012A25D9344A126812F0020F7F
:101C880060D032498A6822F0030213438B60FEF762
:101C980061FC06462D4B9B6803F00C036268B3EBAE
:101CA800820F16D0FEF756FC801B41F2883398420B
:101CB800F0D90320B8E7254A126812F4003FE0D1B2
:101CC8000120B1E7214A126812F0007FD9D1012022
:101CD800AAE71D4B1B6803F00F03AB4209D9EAB210
:101CE800194B1A701B6803F00F03AB4201D0012097
:101CF8009AE7236813F0040F06D0144A936823F474
:101D0800E053E1680B439360236813F0080F07D092
:101D18000E4A936823F46043216943EAC103936040
:101D2800FFF702FF094B9B68C3F30313084AD35C10
:101D3800D840084B18600020FEF7C2FB002073E76C
:101D48000120704701206FE7003C02400038024044
:101D5800A02700080800002010B4036A046A24F0D1
:101D680001040462846924F0F00444EA021223F0B6
:101D78000A030B43826103625DF8044B704710B499
:101D8800036A23F0100303628469036A24F470442D
:101D980044EA023223F0A00343EA0113826103629A
:101DA8005DF8044B7047836823F07003194341F0D2
:101DB8000701816070470268D36843F00103D3606C
:101DC8000268936803F00703062B03D0136843F0F7
:101DD80001031360002070477047704770477047D1
:101DE80010B5044603681A6912F0020F11D0DA68B8
:101DF80012F0020F0DD06FF002021A61012303776F
:101E080003689B6913F0030F70D0FFF7E6FF002308
:101E1800237723681A6912F0040F12D0DA6812F0D7
:101E2800040F0ED06FF004021A610223237723688F
:101E38009B6913F4407F5FD02046FFF7CEFF002355
:101E4800237723681A6912F0080F12D0DA6812F0A3
:101E5800080F0ED06FF008021A6104232377236855
:101E6800DB6913F0030F4ED02046FFF7B6FF0023BF
:101E7800237723681A6912F0100F12D0DA6812F06B
:101E8800100F0ED06FF010021A6108232377236811
:101E9800DB6913F4407F3DD02046FFF79EFF002307
:101EA800237723681A6912F0010F03D0DA6812F059
:101EB800010F36D123681A6912F0800F03D0DA684F
:101EC80012F0800F34D123681A6912F0400F03D042
:101ED800DA6812F0400F32D123681A6912F0200F25
:101EE80003D0DA6812F0200F30D110BDFFF774FF6D
:101EF8002046FFF773FF8AE72046FFF76DFF20466D
:101F0800FFF76CFF9BE72046FFF766FF2046FFF7C9
:101F180065FFACE72046FFF75FFF2046FFF75EFF4F
:101F2800BDE76FF001021A61204600F0A3FAC1E78D
:101F38006FF080021A61204600F02AF9C3E76FF0BB
:101F480040021A612046FFF74AFFC5E76FF02002FA
:101F58001A61204600F01BF9C7E700000368304A01
:101F6800904212D0B0F1804F0FD0A2F57C4290423F
:101F78000BD002F58062904207D002F58062904251
:101F880003D002F57842904203D123F070034A68E7
:101F98001343234A90422AD0B0F1804F27D0A2F5AC
:101FA8007C42904223D002F5806290421FD002F515
:101FB800806290421BD002F57842904217D002F519
:101FC8007052904213D002F5806290420FD002F511
:101FD800806290420BD0A2F59832904207D002F569
:101FE8008062904203D002F58062904203D123F4CC
:101FF8004073CA68134323F080034A69134303609C
:102008008B68C3620B688362054B984203D003F563
:102018008063984201D10B690363012343617047D0
:1020280000000140A8B110B5044690F83D305BB1FE
:10203800022384F83D30211D2068FFF78FFF01231C
:1020480084F83D30002010BD80F83C3000F0CEFA16
:10205800EEE70120704710B4846824F47F4442EA14
:1020680003230B43234383605DF8044B704790F8C8
:102078003C30012B66D010B50446012380F83C3073
:10208800022380F83D300268936823F47F4323F0ED
:10209800770393600B68402B4AD013D9602B3DD04F
:1020A8001ED9702B28D0B3F5005F30D1CB684A68B1
:1020B80089680068FFF7CFFF2268936843F480437C
:1020C800936024E0102B06D004D9202B03D0302BAA
:1020D80001D01CE0DBB919462068FFF764FE16E062
:1020E800502B14D1CA6849680068FFF735FE5021A3
:1020F8002068FFF758FE0AE0CB684A6889680068DC
:10210800FFF7A9FF2268936843F0770393600123E0
:1021180084F83D30002084F83C0010BDCA68496846
:102128000068FFF72CFE60212068FFF73CFEEEE711
:10213800CA6849680068FFF70FFE40212068FFF76A
:1021480032FEE4E70220704790F83C30012B1CD0A7
:1021580070B4012680F83C60022380F83D300268A4
:102168005568936825F070050C682C4323F08005AA
:102178004B682B4354600268936080F83D600023ED
:1021880080F83C30184670BC704702207047704792
:102198007047000084B000220192104B196B41F087
:1021A80080011963196B01F0800101910199029274
:1021B800196B41F001011963196B01F001010291DA
:1021C800029903921A6B42F002021A631B6B03F026
:1021D80002030393039B04B0704700BF003802401A
:1021E80008B50C480C4B036015234360002383603B
:1021F800C3604FF4402202614FF4801242610376BB
:10220800437683760122C27603774377FEF742FC52
:1022180008BD00BF780100200064004030B587B0D9
:102228000024029403940494059400940194104D9E
:102238004FF080432B604AF210436B60AC604FF460
:10224800FA73EB602C61AC612846FFF7EBFE4FF4A4
:102258008053029302A92846FFF709FF2023009321
:10226800019469462846FFF76FFF07B030BD00BFED
:102278003801002000B583B000210191094B1A6B89
:1022880042F480021A631B6B03F480030193019BE1
:102298000A463820FEF736FF3820FEF767FF03B0FE
:1022A8005DF804FB00380240F0B585B000250095C4
:1022B800019502950395184C184B23604FF4403351
:1022C80063604FF00073A36001262661267684F8C8
:1022D8002050E562124BA362E5600327E76184F8AA
:1022E800306066612046FEF7D5F900950196072310
:1022F800029369462046FEF705FB009602250195E4
:1023080069462046FEF7FEFA009501976946204681
:10231800FEF7F8FA05B0F0BD8C000020002001405F
:102328000100000F30B595B03022002108A800F058
:102338001BFA0024039404940594069407940194CA
:102348001C4B1A6C42F080521A641B6C03F08053C9
:102358000193019B0294184B1A6842F480421A6058
:102368001B6803F480430293029B012308934FF4F4
:102378008033099302250E954FF480030F930823A9
:1023880010934FF4A873119312950723139308A879
:10239800FFF7FEF90F230393049505944FF4A05318
:1023A80006934FF480530793052103A8FFF728FCF1
:1023B80015B030BD003802400070004008B508492B
:1023C80001220A6200234B610B610B604B608B603A
:1023D800CB608B61CA610348FEF702FC08BD00BFF1
:1023E8002C0000207801002008B5FEF78DF8FFF7D3
:1023F80099FFFFF7CFFEFFF7F3FEFFF70FFFFFF799
:1024080039FFFFF751FF032208490948FEF76EF923
:10241800FFF7D4FF074C03212046FEF71AFD20469C
:10242800FEF774FC0448FFF7C6FCFEE754000020E2
:102438008C000020780100203801002008B50749E9
:1024480003230B6140F223130B6000238B60CB60E6
:10245800034B044A0448FEF787FC08BDA00100208E
:102468003401002054000020780100207047704794
:102478007047704708B5FFF7E1FF08BD70470000D7
:1024880082B0002100910B4B5A6C42F480425A648E
:102498005A6C02F480420092009A01911A6C42F040
:1024A80080521A641B6C03F080530193019B02B0A5
:1024B800704700BF0038024030B589B0002303934D
:1024C8000493059306930793026803F1804303F589
:1024D80090339A4201D009B030BD044600250195D9
:1024E80003F58C335A6C42F480725A645A6C02F4C5
:1024F80080720192019A02951A6B42F001021A63E6
:102508001B6B03F001030293029B0723039303232E
:10251800049303A90E48FFF757F80E480E4B0360C3
:1025280045608560C5604FF48063036145618561DE
:102538004FF48073C36105624562FEF7B7FE18B9B0
:10254800044BA3639C63C6E7FFF798FFF8E700BF57
:1025580000000240D40000201064024030B589B069
:1025680000230393049305930693079302681D4B76
:102578009A4201D009B030BD0024019403F5EA3332
:102588001A6C42F000721A641A6C02F0007201921E
:10259800019A02941A6B42F002021A631B6B03F051
:1025A80002030293029B4FF44073039302250495A0
:1025B800032306930923079303A90B48FFF704F89D
:1025C800224621461320FEF79DFD1320FEF7CEFD7F
:1025D8002A4621461420FEF795FD1420FEF7C6FD75
:1025E800C8E700BF00640040000402400368B3F17C
:1025F800804F00D0704700B583B00021019103F5EA
:102608000E331A6C42F001021A641B6C03F00103CA
:102618000193019B01221C20FEF774FD1C20FEF78C
:10262800A5FD03B05DF804FB7047FEE7FEE7FEE793
:10263800FEE770477047704708B5FDF77FFF08BD94
:1026480008B50248FEF720FC08BD00BF780100204D
:1026580008B50248FEF718FC08BD00BF7801002045
:1026680008B50248FFF7BCFB08BD00BF38010020D1
:1026780008B50248FEF7BAFE08BD00BFD400002026
:102688000F49D1F8883043F47003C1F888300D4BF6
:102698001A6842F001021A60002098601A6822F055
:1026A800847222F480321A60074A5A601A6822F447
:1026B80080221A60D8604FF000638B60704700BFBB
:1026C80000ED00E00038024010300024DFF834D07C
:1026D800002103E00C4B5B58435004310B480C4B72
:1026E80042189A42F6D30B4A02E0002342F8043B10
:1026F800094B9A42F9D3FFF7C3FF00F011F8FFF72F
:1027080073FE704700000220C82700080000002060
:102718000C0000200C000020D4010020FEE700007F
:1027280070B50D4E0D4CA41BA4100025A54209D16F
:102738000B4E0C4C00F020F8A41BA4100025A54259
:1027480005D170BD56F8253098470135EEE756F8A3
:10275800253098470135F2E7C0270008C027000850
:10276800C0270008C427000802440346934200D14A
:10277800704703F8011BF9E7F8B500BFF8BC08BCBF
:102788009E467047F8B500BFF8BC08BC9E46704727
:1027980000061016000610160000000000000000D9
:1027A80001020304060708090000000001020304EF
:0827B80040DAFF7F0100000080
:0427C000AD0100085F
:0427C400890100087F
:0C27C80001000000100000000024F400DC
:04000005080026D5F4
:00000001FF
